{
  "contractName": "CrowdFunding",
  "abi": [
    {
      "anonymous": false,
      "inputs": [
        {
          "indexed": false,
          "internalType": "address",
          "name": "account",
          "type": "address"
        },
        {
          "indexed": false,
          "internalType": "uint256",
          "name": "amount",
          "type": "uint256"
        }
      ],
      "name": "EtherSent",
      "type": "event"
    },
    {
      "constant": true,
      "inputs": [],
      "name": "name",
      "outputs": [
        {
          "internalType": "string",
          "name": "",
          "type": "string"
        }
      ],
      "payable": false,
      "stateMutability": "view",
      "type": "function"
    },
    {
      "constant": false,
      "inputs": [
        {
          "internalType": "address payable",
          "name": "sender",
          "type": "address"
        }
      ],
      "name": "sendcoins",
      "outputs": [],
      "payable": true,
      "stateMutability": "payable",
      "type": "function"
    }
  ],
  "bytecode": "0x60806040526040518060400160405280601c81526020017f43726f77642046756e64696e6720736d61727420636f6e7472616374000000008152506000908051906020019061004f929190610062565b5034801561005c57600080fd5b50610107565b828054600181600116156101000203166002900490600052602060002090601f016020900481019282601f106100a357805160ff19168380011785556100d1565b828001600101855582156100d1579182015b828111156100d05782518255916020019190600101906100b5565b5b5090506100de91906100e2565b5090565b61010491905b808211156101005760008160009055506001016100e8565b5090565b90565b6102b4806101166000396000f3fe6080604052600436106100295760003560e01c806306fdde031461002e578063cd3290b8146100be575b600080fd5b34801561003a57600080fd5b50610043610102565b6040518080602001828103825283818151815260200191508051906020019080838360005b83811015610083578082015181840152602081019050610068565b50505050905090810190601f1680156100b05780820380516001836020036101000a031916815260200191505b509250505060405180910390f35b610100600480360360208110156100d457600080fd5b81019080803573ffffffffffffffffffffffffffffffffffffffff1690602001909291905050506101a0565b005b60008054600181600116156101000203166002900480601f0160208091040260200160405190810160405280929190818152602001828054600181600116156101000203166002900480156101985780601f1061016d57610100808354040283529160200191610198565b820191906000526020600020905b81548152906001019060200180831161017b57829003601f168201915b505050505081565b6000349050803373ffffffffffffffffffffffffffffffffffffffff163110156101c957600080fd5b8173ffffffffffffffffffffffffffffffffffffffff166108fc829081150290604051600060405180830381858888f1935050505015801561020f573d6000803e3d6000fd5b507f6109e2559dfa766aaec7118351d48a523f0a4157f49c8d68749c8ac41318ad128282604051808373ffffffffffffffffffffffffffffffffffffffff1673ffffffffffffffffffffffffffffffffffffffff1681526020018281526020019250505060405180910390a1505056fea265627a7a723158205b8e9754bc69811ab3bd9f41f47956dd9625468dbc1922186373fcbd82158c9b64736f6c63430005100032",
  "source": "pragma solidity >=0.4.22 <0.9.0;\n\ncontract CrowdFunding\n{\n    string public name = \"Crowd Funding smart contract\";\n\n    //working with ether only here\n\n    event EtherSent(\n    address account,\n    uint amount\n    \n  );\n\n    //transfers ether from sender to smart contract / liquidity pool\n    function sendcoins(address payable sender) public payable \n    {\n        uint EtherAmount = msg.value;\n\n        require(address(msg.sender).balance >= EtherAmount);\n\n        sender.transfer(EtherAmount);\n\n        emit EtherSent(sender, EtherAmount);\n\n\n    }\n\n    \n\n\n}",
  "sourcePath": "/Users/sooraj/personal/blockchain_dev/CrowdFunding/contracts/CrowdFunding.sol",
  "compiler": {
    "name": "solc",
    "version": "0.5.16+commit.9c3226ce.Emscripten.clang"
  },
  "schemaVersion": "3.0.23",
  "updatedAt": "2022-03-19T05:24:44.730Z",
  "networkType": "ethereum",
  "devdoc": {
    "methods": {}
  },
  "userdoc": {
    "methods": {}
  }
}